:020000040800F2
:100000000008002035160008B9150008BB150008C7
:1000100000000000000000000000000000000000E0
:10002000000000000000000000000000BD150008F6
:100030000000000000000000BF150008C115000806
:10004000B5160008B5160008B5160008B516000864
:10005000B5160008B5160008B5160008B516000854
:1000600000000000B5160008B5160008B516000817
:10007000B5160008C915000800000000B5160008F4
:100080000000000000000000000000000000000070
:10009000B51600080000000000000000B5160008BA
:1000A00000000000B516000800000000000000007D
:1000B000B5160008B516000800000000000000009A
:1000C00010B5064C2378002B07D1054B002B02D02E
:1000D000044800E000BF0123237010BD040000208D
:1000E0000000000048170008044B10B5002B03D097
:1000F0000349044800E000BF10BDC04600000000F6
:100100000800002048170008002243088B4274D3DF
:1001100003098B425FD3030A8B4244D3030B8B4208
:1001200028D3030C8B420DD3FF22090212BA030C11
:100130008B4202D31212090265D0030B8B4219D3F2
:1001400000E0090AC30B8B4201D3CB03C01A524112
:10015000830B8B4201D38B03C01A5241430B8B425A
:1001600001D34B03C01A5241030B8B4201D30B0343
:10017000C01A5241C30A8B4201D3CB02C01A52416A
:10018000830A8B4201D38B02C01A5241430A8B422D
:1001900001D34B02C01A5241030A8B4201D30B0216
:1001A000C01A5241CDD2C3098B4201D3CB01C01A30
:1001B000524183098B4201D38B01C01A524143093A
:1001C0008B4201D34B01C01A524103098B4201D328
:1001D0000B01C01A5241C3088B4201D3CB00C01A95
:1001E000524183088B4201D38B00C01A524143080D
:1001F0008B4201D34B00C01A5241411A00D2014632
:10020000524110467047FFE701B5002000F006F8A4
:1002100002BDC0460029F7D076E770477047C04658
:1002200010B50400094B1868FA218900FFF76CFF2C
:1002300000F082F8002801D0012010BD013000221A
:100240002100404200F03EF80020F6E700000020C8
:1002500010B5084A136840210B4313600020FFF7D4
:10026000DFFF041E02D00124200010BD01F096F92A
:10027000FAE7C04600200240024A136801331360C7
:100280007047C04624000020014B18687047C046E4
:1002900024000020024A136802218B431360704738
:1002A00010E000E0024A536801218B43536070471D
:1002B00000580140024A536802218B435360704743
:1002C0000058014070B5002811DB8408134DC0347C
:1002D000A400625903231840C000FC331E0086406E
:1002E000B24389010B4083401343635170BDC0B2D8
:1002F0000F220240083A920806329200084BD318A7
:100300005D6803242040C000FF2214008440A54300
:1003100089010A4082402A435A60E7E700E100E091
:1003200000ED00E01F2318401E3B8340014A13608C
:100330007047C04600E100E001380A4B98420FD8F0
:10034000094A50600948036A1B021B0AC0210906BA
:100350000B43036200239360073313600020704750
:100360000120FCE7FFFFFF0010E000E000ED00E0EF
:10037000F0B5C64600B5002378E085685F00032627
:10038000BE40B5432E00CD68BD403543856045680D
:10039000A5434A681609012434409C402C4344601C
:1003A00007685E0003242500B540ED432F404A68EE
:1003B0001440B4403C430460C46825408C68B44099
:1003C0002C43C4604A68D2004FD5414D6C6B012666
:1003D00034436C639C08A51CAD003E4EAF59032509
:1003E0001D40AD000F26AE40B743A026F605B04233
:1003F00067D0394EB04266D0384EB0425FD0062644
:10040000AE4035003D430234A400324EA551344C79
:1004100025684246D4432E0026404A68D20302D5BE
:10042000424615432E002E4D2E606D682E0026404C
:100430004A68920302D5424615432E00284D6E604D
:10044000AD682E0026404A68D20202D542461543C6
:100450002E00234DAE60ED682C404A68920202D512
:1004600042462A4314001E4AD46001330A6814002D
:10047000DC402AD001249C4022409046F5D04D68B3
:10048000022D01D0122D0ED1DD080835AD002F58F8
:1004900007261E40B6000F22B24097430A69B240B9
:1004A00016003E432E504D686E1E012E00D864E7A4
:1004B000112D00D161E7122D00D071E75DE7022612
:1004C0009EE700269CE701269AE704BC9046F0BD13
:1004D00000100240000001400004005000080050DD
:1004E00000040140002A01D1816270478161FCE76C
:1004F00070B5041E41D02E23C35C002B37D02E23B1
:100500000222E2542568EB686068012804D080224A
:100510001204A16A914201D11E2293436169184AD3
:10052000914201D0174A1340174A1A40A368034367
:10053000266A3343666A3343A66A3343134301286A
:1005400003D080221204964203D1E268206902435C
:1005500013430B4A914204D0A2691143E26911434B
:100560000B43EB602E230122E254002070BD2D339B
:100570000022C25400F0C2FDC1E70120F6E7C046E8
:10058000FFFF00003F1FFFFFF8F119FF10B52E23FA
:100590000222C254164A146880239B052343136029
:1005A0004368012B04D080231B04826A9A4219D02D
:1005B00002689368102423439360026893680E3C9A
:1005C0002343936004682369012213432361036872
:1005D000996101680B69042423430B612E23C254E3
:1005E000002010BD0268D368024C2340D360DFE7CF
:1005F00000040140FFF1FFFF7047704770477047EC
:100600007047704710B5040003681A68D20702D516
:100610009A68D2072AD423681A68920702D59A6882
:10062000920728D423681A68520702D59A6852079D
:1006300027D423681A68120702D59A68120726D4AD
:1006400023681A68D20602D59A68D20625D4236890
:100650001A68920602D59A68920624D423681A680A
:10066000520602D59A68520623D410BD01225A6060
:10067000FFF7C2FFCFE702225A60200000F014FE0D
:10068000D0E704225A602000FFF7B7FFD1E7082225
:100690005A602000FFF7B2FFD2E710225A60200014
:1006A000FFF7ADFFD3E720225A602000FFF7A8FF35
:1006B000D4E740225A602000FFF7A3FFD5E70000EF
:1006C00010B50C4A13680324A343184310600A4A68
:1006D0001369042003431361012908D040BF20BFE0
:1006E00020BF054A136904218B43136110BD30BF3D
:1006F000F7E7C0460070004000ED00E010B5264B63
:10070000D9680C230B40082B42D00C2B11D0042BA2
:1007100009D0214B5A68520B072313400133802024
:100720000002984010BD1C4B1B68DB0632D51B48ED
:10073000F8E78A0C0F231340194AD05C890D032275
:1007400011400131144BDB68DB030DD4124B1B68E5
:10075000DB0613D54201121A93019B1ADB001B180A
:100760001802FFF7D1FCDDE74201121A93019B1A30
:10077000DB001B185802FFF7C7FCD3E74201121A2F
:1007800093019B1ADB001B189802FFF7BDFCC9E719
:100790000448C7E70448C5E70010024000093D00CF
:1007A0003418000800127A000024F400F0B583B079
:1007B000041E00D165E2C44BDA680C251540DA68E6
:1007C0008026760216400368DB0736D5082D2CD02C
:1007D0000C2D28D0636880225202934255D0A0226B
:1007E000D202934258D0B84B1A68B8490A401A60EE
:1007F0001A68802149020A400192019A1A68B44994
:100800000A401A606368002B52D0FFF73DFD0700D5
:10081000AD4B1B689B0310D4FFF736FDC01B64284B
:10082000F6D903202EE2002ED4D0A74B1B689B03E1
:1008300003D56368002B00D126E223689B076CD5A3
:10084000E3689A0605D5A048026820210A430260A1
:100850008B43042D3CD00C2D38D0002B00D1AEE0C2
:1008600099490A680920824313430B60FFF70CFD86
:100870000600954B1B685B0700D597E0FFF704FD6A
:10088000801B0228F5D90320FCE18F4A11688023E0
:100890005B020B431360B5E78B4B19688022D202D1
:1008A0000A431A601968802252020A431A60A9E7B3
:1008B000FFF7EAFC0700844B1B689B03BDD5FFF7DD
:1008C000E3FCC01B6428F6D90320DBE1002EC4D171
:1008D0007D4A1268520702D5002B00D1D6E17A4E2C
:1008E00072687C490A40216909020A4372603268D1
:1008F00009218A4313433360FFF700FFF2681209AE
:100900000F231340744AD35CD840744B1860002006
:10091000FFF786FC002800D0B4E12368DB062CD565
:10092000002D5FD1684B1B689B0503D5A369002B85
:1009300000D1ADE1644A536869490B40216A0B4319
:10094000536053681B021B0AE16909060B4353609D
:10095000236A590B013180231B028B40D16809099E
:100960000F220A405C498A5CD3405C4A1360002035
:10097000FFF756FC002800D084E123681B077DD5D3
:100980006369002B67D0504A136D01210B43136537
:10099000FFF77AFC06004C4B1B6D9B076ED4FFF7EC
:1009A00073FC801B0228F6D903206BE146494B6893
:1009B000484A13402269120213434B60ADE7424A92
:1009C000136801218B431360FFF75EFC06003E4B6A
:1009D0001B685B07A1D5FFF757FC801B0228F6D9DF
:1009E00003204FE1A369002B22D0374A11688023EE
:1009F0005B000B431360FFF747FC0600324B1B689C
:100A00009B0506D4FFF740FC801B0228F6D9032083
:100A100038E12D4A536832490B40216A0B43536039
:100A200053681B021B0AE16909060B435360A4E7E4
:100A3000254A13682B490B401360FFF725FC06007D
:100A4000214B1B689B0598D5FFF71EFC801B0228D5
:100A5000F6D9032016E11C4A136D01218B4313655F
:100A6000FFF712FC0600184B1B6D9B0706D5FFF71E
:100A70000BFC801B0228F6D9032003E123685B07E7
:100A800000D48CE0104B9B6BDB001BD40E4A916BA7
:100A900080235B050B4393630126134B1B68DB0527
:100AA00026D5A36880225200934235D0002B4BD12B
:100AB000054B1A6D0B490A401A651A6D0B490A401D
:100AC0001A652FE00026E8E700100240FFFFFEFF56
:100AD000FFFFFBFFFFE0FFFF4018000800000020C1
:100AE000FF1FFFFFFFFEFFFF00700040FFFBFFFF47
:100AF0006B4A116880235B000B431360FFF7C4FB54
:100B00000700674B1B68DB05CBD4FFF7BDFBC01BA1
:100B10006428F6D90320B5E0624A116D80235B009A
:100B20000B431365A368002B28D0FFF7ADFB07002C
:100B30005C4B1B6D9B0530D4FFF7A6FBC01B5A4BCB
:100B40009842F5D903209DE0A022D200934209D01B
:100B5000544B1A6D55490A401A651A6D54490A409A
:100B60001A65DFE74F4B196D013AFF3A0A431A65E0
:100B7000196D802252000A431A65D3E7FFF784FB00
:100B80000700484B1B6D9B0507D5FFF77DFBC01B7E
:100B9000454B9842F5D9032074E0012E1AD0636AC0
:100BA000002B00D176E00C2D4FD0022B18D03D4AFF
:100BB000136840490B401360FFF766FB0400394B94
:100BC0001B689B013FD5FFF75FFB001B0228F6D98E
:100BD000032057E0334A936B37490B409363DEE7BA
:100BE000304A136833490B401360FFF74DFB050093
:100BF0002C4B1B689B0106D5FFF746FB401B0228C8
:100C0000F6D903203EE02749CB682C4A1340A26A5C
:100C1000E06A0243206B02431343CB600A688023DF
:100C20005B0413430B60FFF72FFB04001D4B1B6895
:100C30009B0106D4FFF728FB001B0228F6D90320EE
:100C400020E000201EE000201CE0012B24D0154BEA
:100C5000DA6880235B021340A16A8B4201D0012035
:100C600010E0F0239B031340E16A8B4201D0012086
:100C700008E0C0231B041A40236B9A420ED00120C7
:100C800000E0012003B0F0BD0120FBE70120F9E7FF
:100C90000120F7E70020F5E70120F3E70020F1E766
:100CA000007000400010024088130000FFFEFFFFAC
:100CB000FFFBFFFFFFFFFFFEFFFFFFEFFFFF02FF56
:100CC00070B504000D00002800D1BAE05F4B1A682F
:100CD000012313408B420BD25C490B6801229343E2
:100CE0002B430B600B681A40AA4201D00120A9E0F7
:100CF00023689B0706D5564AD368F0218B43A16829
:100D00000B43D3602368DB0764D56368022B09D0EB
:100D1000032B29D0012B2DD04D4A1268920506D401
:100D200001208FE04A4A1268920300D48BE04849C0
:100D3000CA68032082431343CB60FFF7A5FA06007D
:100D40006368022B1CD0032B28D0012B34D0404BDE
:100D5000DB680C221A423DD0FFF796FA801B3D4B10
:100D60009842F4D903206DE0394A12689201DED42A
:100D7000012067E0364A12685207D8D4012061E0AA
:100D8000334BDA680C231340082B23D0FFF77CFA8F
:100D9000801B304B9842F3D9032053E02C4BDA6888
:100DA0000C2313400C2B15D0FFF76EFA801B294B38
:100DB0009842F3D9032045E0254BDA680C23134011
:100DC000042B07D0FFF760FA801B224B9842F3D91F
:100DD000032037E01D4B1A6801231340AB420BD9A7
:100DE0001A490B68012293432B430B600B681A408E
:100DF000AA4201D0012025E023685B0706D5144AEA
:100E0000D36815490B40E1680B43D36023681B0787
:100E100007D50F49CB68114A13402269D20013430A
:100E2000CB60FFF76BFC0A4BDA6812090F23134003
:100E30000B4AD35CD8400B4B18600020FFF7F0F949
:100E400000E0012070BD0120FCE7C0460020024008
:100E50000010024088130000FFF8FFFFFFC7FFFFEC
:100E6000401800080000002070B5040003689B06CD
:100E70004CD55B4B9B6BDB0000D571E0584A916B06
:100E800080235B050B4393630125564B1B68DB05F1
:100E900068D5534B1968C0239B03194062681340FF
:100EA0008B4206D0C0239B0211001940994200D109
:100EB0006DE04B4B1B6DC02189020B4015D00A40E1
:100EC0009A4212D023689B060FD5454B186D464AAF
:100ED00002401E6D8021090331431965196D434E8F
:100EE000314019651A65C30558D46368C02292025F
:100EF00019001140914260D039490B6DC022920215
:100F00006068024013430B65012D60D023689B0786
:100F100006D5334AD36C0C218B43A1680B43D364B1
:100F200023685B0706D52E4AD36C31490B40E16834
:100F30000B43D36423681B0706D5294AD36C2D497C
:100F40000B4021690B43D36423681B0645D5244A13
:100F5000D36C29490B4061690B43D364002070BDF9
:100F6000002592E71F4A116880235B000B43136042
:100F7000FFF78AF906001B4B1B68DB0500D588E7E5
:100F8000FFF782F9801B6428F5D90320E7E7144BAB
:100F90001B689B0300D48CE70120E0E7FFF774F99E
:100FA00006000F4B1B6D9B059FD4FFF76DF9801B4F
:100FB000124B9842F5D90320D1E709490A68104835
:100FC0000240C0208003034013430B6094E70A00F3
:100FD0008B6B0C490B40936398E70020BFE7C0463A
:100FE0000010024000700040FFFFFCFFFFFFF7FF12
:100FF000FFF3FFFFFFCFFFFFFFFFF3FF88130000AA
:10100000FFFFCFFFFFFFFFEFF0B589B014220021F3
:1010100003A800F091FB284BD96A04221143D9623E
:10102000D96A0A400092009ADA6A01273A43DA62E2
:10103000DA6A3A400192019ADA6A02242243DA62B9
:10104000DB6A23400293029BC02636020022310055
:101050001A48FFF747FA1A4D00222900A020C005C0
:10106000FFF740FA002202211648FFF73BFA0396E9
:10107000049700260596069403A91048FFF778F90F
:10108000039504970596069403A9A020C005FFF7D1
:101090006FF9402303930496059603A9A020C00589
:1010A000FFF766F9039404970596069403A905488B
:1010B000FFF75EF909B0F0BD0010024000080050D3
:1010C0009F6600000004005010B50948094B0360FA
:1010D000002343608360084A426103624362836283
:1010E000FFF706FA002800D110BD00F063F9FBE716
:1010F00028000020007C0040FFFF000010B50268BF
:10110000094B9A4200D010BD084A916B80231B0600
:101110000B439363002200210D20FFF7D3F80D202D
:10112000FFF700F9EFE7C046007C004000100240E6
:1011300030B599B0342200210BA800F0FDFA14223A
:10114000002106A800F0F8FA18220021684600F0F5
:10115000F3FA14490B68144A1A4080231B01134305
:101160000B600A230B9301250E9506330F93109500
:10117000002414940BA8FFF719FB0F23069307957F
:10118000089409940A94002106A8FFF799FD80238A
:1011900000938023DB0205936846FFF765FE19B0D4
:1011A00030BDC04600700040FFE7FFFF10B5FFF7FD
:1011B0004FF8FFF7BDFFFFF727FFFFF785FF052279
:1011C00009490A4800F09CFA09490A48FFF7DEF984
:1011D000FFF760F8FFF76EF8FFF764F801210120D0
:1011E000FFF76EFAFAE7C046AC170008640000206B
:1011F000740E00002800002010B592B030220021AB
:1012000006A800F099FA14220021684600F094FA2A
:101210000A23059301240894063309930A9405A828
:10122000FFF7C4FA0F230093019400230293039362
:10123000049300216846FFF743FD12B010BD000083
:1012400010B5A022D205136816490B401360002088
:10125000002318E001339BB2A022D2051269520686
:10126000F8D5A024E405E2680E49114080229201DD
:101270000A43E26001E001339BB2A022D205126969
:101280005206F8D40130092809DCA024E405E268FC
:1012900004491140802252010A43E260DCE7143B1A
:1012A00098B210BDFFCFFFFF84B010B5029003913C
:1012B00004920593344B1B78002B52D0334A138889
:1012C0000133138000F050F9102807D02F4B1B88F2
:1012D0003C2B19D810BC08BC04B01847FFF78CFF92
:1012E000FFF7AEFF2A4B18801B889BB2002BEDD175
:1012F000254B00221A700021102000F07FF82549AC
:101300002548FFF743F9E1E7204B00221A8000202F
:1013100000F052F8214A13780133DBB21370052B29
:10132000D8D9130000221A701D4B1C781D4B1B5D71
:10133000202B14D0413B9900C9181B4BC91805221A
:101340001A4800F0E6F90134E4B2154B1C70154B55
:101350001B5D002BBED1124B00221A70BAE7144954
:10136000EDE7FFF749FFFFF76BFF094B18801B887C
:101370009BB2022BAED91E210748FFF707F9024B9B
:1013800001221A70A6E7C04620000020600000205D
:101390005A000020740E0000280000205800002091
:1013A0005C00002060170008AC17000874000020E3
:1013B0002E1800087047000000280DD1012314E00A
:1013C000591E0D48425CD2B2C254CBB2002BF7D1A9
:1013D000094B00221A7070472023F7E7581E064970
:1013E000CA5CD2B20A540133DBB21F2BF6D9024BCE
:1013F0000022DA77EFE7C04664000020102813D8F7
:1014000080004F4B1B589F46A023DB054D4A1A60B6
:101410004D4A0F2010604D4AE020C005106080202A
:1014200000025061C94359617047484B00225A611C
:10143000A023DB055961F7E7444BD02212061A605E
:101440008022D2015A61C943A023DB055961EBE731
:101450003E4B00225A61A023DB055961E4E7A0203E
:10146000C0053B4B0360394BF02212061A601F2265
:101470008A438023DB0113434361D5E7A023DB05C7
:101480005961D1E7A020C005324B03601F228A4377
:1014900080239B0113434361C6E7A023DB05596109
:1014A000C2E7A020C0052C4B03601F228A43802383
:1014B000DB0013434361B7E7A023DB055961B3E7C2
:1014C000A020C005254B03601F228A4380239B0078
:1014D00013434361A8E7A023DB055961A4E7A023D8
:1014E000DB05184A1A60184A072010600538506159
:1014F000C943596198E7144B00225A61A023DB05C8
:10150000596191E7A022D205154B13600E4B0F20B5
:1015100018601F238B4380210B43536184E7A02372
:10152000DB05596180E7A023DB050E4A1A60064BF4
:101530000F221A60054BF02212061A6074E7C046AB
:101540006817000855C1FF3F000400500008005014
:1015500055C1FF1F55C1FF3755C1DF3F55C1F73F8B
:101560005541FF3FFFE3FF7F10B50A4C20780F2362
:101570001B1A094AD15CC9B2FFF740FF2378013337
:10158000DBB22370102B02D9024B00221A70014BE0
:10159000187810BD2100002064000020054B5A6B14
:1015A00001210A435A63996B802252050A439A63C8
:1015B0007047C046001002407047FEE77047704712
:1015C00010B5FEF759FE10BD10B50248FFF71AF826
:1015D00010BDC04628000020104B19688022520020
:1015E0000A431A60DA680E490A40DA601A680D493F
:1015F0000A401A609A6801218A439A601A680A4967
:101600000A401A60DA6809490A40DA6000221A6161
:10161000074B802212059A607047C04600100240B6
:101620000C40FF88F6FFF6FEFFFFFBFFFFFF02FF07
:1016300000ED00E01348854613480168090E134A7F
:10164000914205D1124813490160134813490160C2
:10165000002103E0124B5B58435004311148124BF8
:1016600042189A42F6D3114A02E000231360043272
:101670000F4B9A42F9D3FFF7AFFF00F01DF8FFF7C9
:1016800095FDFEE700080020040000001F00000098
:101690003410024001000000000001400000000082
:1016A0006018000800000020040000200400002052
:1016B00084000020FEE7000070B500260C4D0D4CA4
:1016C000641BA410A64209D1002600F03DF80A4D83
:1016D0000A4C641BA410A64205D170BDB300EB58A0
:1016E00098470136EEE7B300EB5898470136F2E72A
:1016F0005818000858180008581800085C18000806
:10170000002310B59A4200D110BDCC5CC454013303
:10171000F8E710B5884202D98B18984203D300230A
:1017200007E08B5C8354013AFBD210BDCC5CC454FF
:1017300001339A42FAD1F8E703001218934200D11C
:10174000704719700133F9E7F8B5C046F8BC08BC1A
:101750009E467047F8B5C046F8BC08BC9E46704728
:101760005445535420000000081400082A140008AF
:1017700038140008501400085E1400087C14000897
:10178000841400089A140008A2140008B814000871
:10179000C0140008D6140008DE140008F61400086F
:1017A000041500081E150008261500081E0505056D
:1017B0001E1F1515150A0E111111001F1111110E02
:1017C0001F151515111F050505010E1111150C1F0B
:1017D0000404041F00111F11000008110F011F0451
:1017E0000A11001F101010103F0204023F3F0204B4
:1017F000083F0E1111110E1F050505020E111509E6
:10180000161F05050D12121515150901011F0101FD
:101810000F1010100F030C300C030F100C100F11D1
:101820000A040A1101021C0201111915131100000A
:1018300000000000030406080C101820300000000F
:101840000000000000000000010203040607080970
:08185000000000000102030486
:04185800E90000089B
:04185C00C1000008BF
:041860000000200064
:0400000508001635A4
:00000001FF
